{
    "_format": "hh-sol-artifact-1",
    "contractName": "NFTCollection",
    "sourceName": "contracts/NFTCollection.sol",
    "abi": [
        {
            "inputs": [
                {
                    "internalType": "string",
                    "name": "_name",
                    "type": "string"
                },
                {
                    "internalType": "string",
                    "name": "_symbol",
                    "type": "string"
                }
            ],
            "stateMutability": "nonpayable",
            "type": "constructor"
        },
        {
            "anonymous": false,
            "inputs": [
                {
                    "indexed": true,
                    "internalType": "address",
                    "name": "owner",
                    "type": "address"
                },
                {
                    "indexed": true,
                    "internalType": "address",
                    "name": "approved",
                    "type": "address"
                },
                {
                    "indexed": true,
                    "internalType": "uint256",
                    "name": "tokenId",
                    "type": "uint256"
                }
            ],
            "name": "Approval",
            "type": "event"
        },
        {
            "anonymous": false,
            "inputs": [
                {
                    "indexed": true,
                    "internalType": "address",
                    "name": "owner",
                    "type": "address"
                },
                {
                    "indexed": true,
                    "internalType": "address",
                    "name": "operator",
                    "type": "address"
                },
                {
                    "indexed": false,
                    "internalType": "bool",
                    "name": "approved",
                    "type": "bool"
                }
            ],
            "name": "ApprovalForAll",
            "type": "event"
        },
        {
            "anonymous": false,
            "inputs": [
                {
                    "indexed": true,
                    "internalType": "address",
                    "name": "previousOwner",
                    "type": "address"
                },
                {
                    "indexed": true,
                    "internalType": "address",
                    "name": "newOwner",
                    "type": "address"
                }
            ],
            "name": "OwnershipTransferred",
            "type": "event"
        },
        {
            "anonymous": false,
            "inputs": [
                {
                    "indexed": true,
                    "internalType": "address",
                    "name": "from",
                    "type": "address"
                },
                {
                    "indexed": true,
                    "internalType": "address",
                    "name": "to",
                    "type": "address"
                },
                {
                    "indexed": true,
                    "internalType": "uint256",
                    "name": "tokenId",
                    "type": "uint256"
                }
            ],
            "name": "Transfer",
            "type": "event"
        },
        {
            "inputs": [
                {
                    "internalType": "address",
                    "name": "to",
                    "type": "address"
                },
                {
                    "internalType": "uint256",
                    "name": "tokenId",
                    "type": "uint256"
                }
            ],
            "name": "approve",
            "outputs": [],
            "stateMutability": "nonpayable",
            "type": "function"
        },
        {
            "inputs": [
                {
                    "internalType": "address",
                    "name": "owner",
                    "type": "address"
                }
            ],
            "name": "balanceOf",
            "outputs": [
                {
                    "internalType": "uint256",
                    "name": "",
                    "type": "uint256"
                }
            ],
            "stateMutability": "view",
            "type": "function"
        },
        {
            "inputs": [
                {
                    "internalType": "uint256",
                    "name": "tokenId",
                    "type": "uint256"
                }
            ],
            "name": "getApproved",
            "outputs": [
                {
                    "internalType": "address",
                    "name": "",
                    "type": "address"
                }
            ],
            "stateMutability": "view",
            "type": "function"
        },
        {
            "inputs": [
                {
                    "internalType": "address",
                    "name": "owner",
                    "type": "address"
                },
                {
                    "internalType": "address",
                    "name": "operator",
                    "type": "address"
                }
            ],
            "name": "isApprovedForAll",
            "outputs": [
                {
                    "internalType": "bool",
                    "name": "",
                    "type": "bool"
                }
            ],
            "stateMutability": "view",
            "type": "function"
        },
        {
            "inputs": [
                {
                    "internalType": "address",
                    "name": "_user",
                    "type": "address"
                },
                {
                    "internalType": "uint256",
                    "name": "_amount",
                    "type": "uint256"
                }
            ],
            "name": "mint",
            "outputs": [],
            "stateMutability": "nonpayable",
            "type": "function"
        },
        {
            "inputs": [],
            "name": "name",
            "outputs": [
                {
                    "internalType": "string",
                    "name": "",
                    "type": "string"
                }
            ],
            "stateMutability": "view",
            "type": "function"
        },
        {
            "inputs": [],
            "name": "owner",
            "outputs": [
                {
                    "internalType": "address",
                    "name": "",
                    "type": "address"
                }
            ],
            "stateMutability": "view",
            "type": "function"
        },
        {
            "inputs": [
                {
                    "internalType": "uint256",
                    "name": "tokenId",
                    "type": "uint256"
                }
            ],
            "name": "ownerOf",
            "outputs": [
                {
                    "internalType": "address",
                    "name": "",
                    "type": "address"
                }
            ],
            "stateMutability": "view",
            "type": "function"
        },
        {
            "inputs": [],
            "name": "renounceOwnership",
            "outputs": [],
            "stateMutability": "nonpayable",
            "type": "function"
        },
        {
            "inputs": [
                {
                    "internalType": "address",
                    "name": "from",
                    "type": "address"
                },
                {
                    "internalType": "address",
                    "name": "to",
                    "type": "address"
                },
                {
                    "internalType": "uint256",
                    "name": "tokenId",
                    "type": "uint256"
                }
            ],
            "name": "safeTransferFrom",
            "outputs": [],
            "stateMutability": "nonpayable",
            "type": "function"
        },
        {
            "inputs": [
                {
                    "internalType": "address",
                    "name": "from",
                    "type": "address"
                },
                {
                    "internalType": "address",
                    "name": "to",
                    "type": "address"
                },
                {
                    "internalType": "uint256",
                    "name": "tokenId",
                    "type": "uint256"
                },
                {
                    "internalType": "bytes",
                    "name": "data",
                    "type": "bytes"
                }
            ],
            "name": "safeTransferFrom",
            "outputs": [],
            "stateMutability": "nonpayable",
            "type": "function"
        },
        {
            "inputs": [
                {
                    "internalType": "address",
                    "name": "operator",
                    "type": "address"
                },
                {
                    "internalType": "bool",
                    "name": "approved",
                    "type": "bool"
                }
            ],
            "name": "setApprovalForAll",
            "outputs": [],
            "stateMutability": "nonpayable",
            "type": "function"
        },
        {
            "inputs": [
                {
                    "internalType": "bytes4",
                    "name": "interfaceId",
                    "type": "bytes4"
                }
            ],
            "name": "supportsInterface",
            "outputs": [
                {
                    "internalType": "bool",
                    "name": "",
                    "type": "bool"
                }
            ],
            "stateMutability": "view",
            "type": "function"
        },
        {
            "inputs": [],
            "name": "symbol",
            "outputs": [
                {
                    "internalType": "string",
                    "name": "",
                    "type": "string"
                }
            ],
            "stateMutability": "view",
            "type": "function"
        },
        {
            "inputs": [
                {
                    "internalType": "uint256",
                    "name": "index",
                    "type": "uint256"
                }
            ],
            "name": "tokenByIndex",
            "outputs": [
                {
                    "internalType": "uint256",
                    "name": "",
                    "type": "uint256"
                }
            ],
            "stateMutability": "view",
            "type": "function"
        },
        {
            "inputs": [
                {
                    "internalType": "address",
                    "name": "owner",
                    "type": "address"
                },
                {
                    "internalType": "uint256",
                    "name": "index",
                    "type": "uint256"
                }
            ],
            "name": "tokenOfOwnerByIndex",
            "outputs": [
                {
                    "internalType": "uint256",
                    "name": "",
                    "type": "uint256"
                }
            ],
            "stateMutability": "view",
            "type": "function"
        },
        {
            "inputs": [
                {
                    "internalType": "uint256",
                    "name": "tokenId",
                    "type": "uint256"
                }
            ],
            "name": "tokenURI",
            "outputs": [
                {
                    "internalType": "string",
                    "name": "",
                    "type": "string"
                }
            ],
            "stateMutability": "view",
            "type": "function"
        },
        {
            "inputs": [
                {
                    "internalType": "address",
                    "name": "_owner",
                    "type": "address"
                }
            ],
            "name": "tokensOfOwner",
            "outputs": [
                {
                    "internalType": "uint256[]",
                    "name": "",
                    "type": "uint256[]"
                }
            ],
            "stateMutability": "view",
            "type": "function"
        },
        {
            "inputs": [],
            "name": "totalSupply",
            "outputs": [
                {
                    "internalType": "uint256",
                    "name": "",
                    "type": "uint256"
                }
            ],
            "stateMutability": "view",
            "type": "function"
        },
        {
            "inputs": [
                {
                    "internalType": "address",
                    "name": "from",
                    "type": "address"
                },
                {
                    "internalType": "address",
                    "name": "to",
                    "type": "address"
                },
                {
                    "internalType": "uint256",
                    "name": "tokenId",
                    "type": "uint256"
                }
            ],
            "name": "transferFrom",
            "outputs": [],
            "stateMutability": "nonpayable",
            "type": "function"
        },
        {
            "inputs": [
                {
                    "internalType": "address",
                    "name": "newOwner",
                    "type": "address"
                }
            ],
            "name": "transferOwnership",
            "outputs": [],
            "stateMutability": "nonpayable",
            "type": "function"
        }
    ],
    "bytecode": "0x6080604052612710600b553480156200001757600080fd5b50604051620037693803806200376983398181016040528101906200003d91906200028b565b818181600090805190602001906200005792919062000169565b5080600190805190602001906200007092919062000169565b50505062000093620000876200009b60201b60201c565b620000a360201b60201c565b50506200046e565b600033905090565b6000600a60009054906101000a900473ffffffffffffffffffffffffffffffffffffffff16905081600a60006101000a81548173ffffffffffffffffffffffffffffffffffffffff021916908373ffffffffffffffffffffffffffffffffffffffff1602179055508173ffffffffffffffffffffffffffffffffffffffff168173ffffffffffffffffffffffffffffffffffffffff167f8be0079c531659141344cd1fd0a4f28419497f9722a3daafe3b4186f6b6457e060405160405180910390a35050565b828054620001779062000393565b90600052602060002090601f0160209004810192826200019b5760008555620001e7565b82601f10620001b657805160ff1916838001178555620001e7565b82800160010185558215620001e7579182015b82811115620001e6578251825591602001919060010190620001c9565b5b509050620001f69190620001fa565b5090565b5b8082111562000215576000816000905550600101620001fb565b5090565b6000620002306200022a8462000327565b620002fe565b9050828152602081018484840111156200024957600080fd5b620002568482856200035d565b509392505050565b600082601f8301126200027057600080fd5b81516200028284826020860162000219565b91505092915050565b600080604083850312156200029f57600080fd5b600083015167ffffffffffffffff811115620002ba57600080fd5b620002c8858286016200025e565b925050602083015167ffffffffffffffff811115620002e657600080fd5b620002f4858286016200025e565b9150509250929050565b60006200030a6200031d565b9050620003188282620003c9565b919050565b6000604051905090565b600067ffffffffffffffff8211156200034557620003446200042e565b5b62000350826200045d565b9050602081019050919050565b60005b838110156200037d57808201518184015260208101905062000360565b838111156200038d576000848401525b50505050565b60006002820490506001821680620003ac57607f821691505b60208210811415620003c357620003c2620003ff565b5b50919050565b620003d4826200045d565b810181811067ffffffffffffffff82111715620003f657620003f56200042e565b5b80604052505050565b7f4e487b7100000000000000000000000000000000000000000000000000000000600052602260045260246000fd5b7f4e487b7100000000000000000000000000000000000000000000000000000000600052604160045260246000fd5b6000601f19601f8301169050919050565b6132eb806200047e6000396000f3fe608060405234801561001057600080fd5b50600436106101375760003560e01c80636352211e116100b857806395d89b411161007c57806395d89b4114610360578063a22cb4651461037e578063b88d4fde1461039a578063c87b56dd146103b6578063e985e9c5146103e6578063f2fde38b1461041657610137565b80636352211e146102a857806370a08231146102d8578063715018a6146103085780638462151c146103125780638da5cb5b1461034257610137565b806323b872dd116100ff57806323b872dd146101f45780632f745c591461021057806340c10f191461024057806342842e0e1461025c5780634f6ccce71461027857610137565b806301ffc9a71461013c57806306fdde031461016c578063081812fc1461018a578063095ea7b3146101ba57806318160ddd146101d6575b600080fd5b610156600480360381019061015191906123c7565b610432565b6040516101639190612851565b60405180910390f35b610174610444565b604051610181919061286c565b60405180910390f35b6101a4600480360381019061019f9190612419565b6104d6565b6040516101b191906127c8565b60405180910390f35b6101d460048036038101906101cf919061238b565b61051c565b005b6101de610634565b6040516101eb9190612a6e565b60405180910390f35b61020e60048036038101906102099190612285565b610641565b005b61022a6004803603810190610225919061238b565b6106a1565b6040516102379190612a6e565b60405180910390f35b61025a6004803603810190610255919061238b565b610746565b005b61027660048036038101906102719190612285565b61078c565b005b610292600480360381019061028d9190612419565b6107ac565b60405161029f9190612a6e565b60405180910390f35b6102c260048036038101906102bd9190612419565b610843565b6040516102cf91906127c8565b60405180910390f35b6102f260048036038101906102ed9190612220565b6108f5565b6040516102ff9190612a6e565b60405180910390f35b6103106109ad565b005b61032c60048036038101906103279190612220565b6109c1565b604051610339919061282f565b60405180910390f35b61034a610ab9565b60405161035791906127c8565b60405180910390f35b610368610ae3565b604051610375919061286c565b60405180910390f35b6103986004803603810190610393919061234f565b610b75565b005b6103b460048036038101906103af91906122d4565b610b8b565b005b6103d060048036038101906103cb9190612419565b610bed565b6040516103dd919061286c565b60405180910390f35b61040060048036038101906103fb9190612249565b610c55565b60405161040d9190612851565b60405180910390f35b610430600480360381019061042b9190612220565b610ce9565b005b600061043d82610d6d565b9050919050565b60606000805461045390612ccc565b80601f016020809104026020016040519081016040528092919081815260200182805461047f90612ccc565b80156104cc5780601f106104a1576101008083540402835291602001916104cc565b820191906000526020600020905b8154815290600101906020018083116104af57829003601f168201915b5050505050905090565b60006104e182610de7565b6004600083815260200190815260200160002060009054906101000a900473ffffffffffffffffffffffffffffffffffffffff169050919050565b600061052782610843565b90508073ffffffffffffffffffffffffffffffffffffffff168373ffffffffffffffffffffffffffffffffffffffff161415610598576040517f08c379a000000000000000000000000000000000000000000000000000000000815260040161058f90612a0e565b60405180910390fd5b8073ffffffffffffffffffffffffffffffffffffffff166105b7610e32565b73ffffffffffffffffffffffffffffffffffffffff1614806105e657506105e5816105e0610e32565b610c55565b5b610625576040517f08c379a000000000000000000000000000000000000000000000000000000000815260040161061c9061298e565b60405180910390fd5b61062f8383610e3a565b505050565b6000600880549050905090565b61065261064c610e32565b82610ef3565b610691576040517f08c379a000000000000000000000000000000000000000000000000000000000815260040161068890612a4e565b60405180910390fd5b61069c838383610f88565b505050565b60006106ac836108f5565b82106106ed576040517f08c379a00000000000000000000000000000000000000000000000000000000081526004016106e49061288e565b60405180910390fd5b600660008473ffffffffffffffffffffffffffffffffffffffff1673ffffffffffffffffffffffffffffffffffffffff168152602001908152602001600020600083815260200190815260200160002054905092915050565b60005b818110156107875761075b600c6111ef565b6000610767600c611205565b90506107738482611213565b50808061077f90612d2f565b915050610749565b505050565b6107a783838360405180602001604052806000815250610b8b565b505050565b60006107b6610634565b82106107f7576040517f08c379a00000000000000000000000000000000000000000000000000000000081526004016107ee90612a2e565b60405180910390fd5b60088281548110610831577f4e487b7100000000000000000000000000000000000000000000000000000000600052603260045260246000fd5b90600052602060002001549050919050565b6000806002600084815260200190815260200160002060009054906101000a900473ffffffffffffffffffffffffffffffffffffffff169050600073ffffffffffffffffffffffffffffffffffffffff168173ffffffffffffffffffffffffffffffffffffffff1614156108ec576040517f08c379a00000000000000000000000000000000000000000000000000000000081526004016108e3906129ee565b60405180910390fd5b80915050919050565b60008073ffffffffffffffffffffffffffffffffffffffff168273ffffffffffffffffffffffffffffffffffffffff161415610966576040517f08c379a000000000000000000000000000000000000000000000000000000000815260040161095d9061296e565b60405180910390fd5b600360008373ffffffffffffffffffffffffffffffffffffffff1673ffffffffffffffffffffffffffffffffffffffff168152602001908152602001600020549050919050565b6109b5611231565b6109bf60006112af565b565b606060006109ce836108f5565b905060008167ffffffffffffffff811115610a12577f4e487b7100000000000000000000000000000000000000000000000000000000600052604160045260246000fd5b604051908082528060200260200182016040528015610a405781602001602082028036833780820191505090505b50905060005b82811015610aae57610a5885826106a1565b828281518110610a91577f4e487b7100000000000000000000000000000000000000000000000000000000600052603260045260246000fd5b60200260200101818152505080610aa790612d2f565b9050610a46565b508092505050919050565b6000600a60009054906101000a900473ffffffffffffffffffffffffffffffffffffffff16905090565b606060018054610af290612ccc565b80601f0160208091040260200160405190810160405280929190818152602001828054610b1e90612ccc565b8015610b6b5780601f10610b4057610100808354040283529160200191610b6b565b820191906000526020600020905b815481529060010190602001808311610b4e57829003601f168201915b5050505050905090565b610b87610b80610e32565b8383611375565b5050565b610b9c610b96610e32565b83610ef3565b610bdb576040517f08c379a0000000000000000000000000000000000000000000000000000000008152600401610bd290612a4e565b60405180910390fd5b610be7848484846114e2565b50505050565b6060610bf882610de7565b6000610c0261153e565b90506000815111610c225760405180602001604052806000815250610c4d565b80610c2c84611555565b604051602001610c3d9291906127a4565b6040516020818303038152906040525b915050919050565b6000600560008473ffffffffffffffffffffffffffffffffffffffff1673ffffffffffffffffffffffffffffffffffffffff16815260200190815260200160002060008373ffffffffffffffffffffffffffffffffffffffff1673ffffffffffffffffffffffffffffffffffffffff16815260200190815260200160002060009054906101000a900460ff16905092915050565b610cf1611231565b600073ffffffffffffffffffffffffffffffffffffffff168173ffffffffffffffffffffffffffffffffffffffff161415610d61576040517f08c379a0000000000000000000000000000000000000000000000000000000008152600401610d58906128ce565b60405180910390fd5b610d6a816112af565b50565b60007f780e9d63000000000000000000000000000000000000000000000000000000007bffffffffffffffffffffffffffffffffffffffffffffffffffffffff1916827bffffffffffffffffffffffffffffffffffffffffffffffffffffffff19161480610de05750610ddf82611702565b5b9050919050565b610df0816117e4565b610e2f576040517f08c379a0000000000000000000000000000000000000000000000000000000008152600401610e26906129ee565b60405180910390fd5b50565b600033905090565b816004600083815260200190815260200160002060006101000a81548173ffffffffffffffffffffffffffffffffffffffff021916908373ffffffffffffffffffffffffffffffffffffffff160217905550808273ffffffffffffffffffffffffffffffffffffffff16610ead83610843565b73ffffffffffffffffffffffffffffffffffffffff167f8c5be1e5ebec7d5bd14f71427d1e84f3dd0314c0f7b2291e5b200ac8c7c3b92560405160405180910390a45050565b600080610eff83610843565b90508073ffffffffffffffffffffffffffffffffffffffff168473ffffffffffffffffffffffffffffffffffffffff161480610f415750610f408185610c55565b5b80610f7f57508373ffffffffffffffffffffffffffffffffffffffff16610f67846104d6565b73ffffffffffffffffffffffffffffffffffffffff16145b91505092915050565b8273ffffffffffffffffffffffffffffffffffffffff16610fa882610843565b73ffffffffffffffffffffffffffffffffffffffff1614610ffe576040517f08c379a0000000000000000000000000000000000000000000000000000000008152600401610ff5906128ee565b60405180910390fd5b600073ffffffffffffffffffffffffffffffffffffffff168273ffffffffffffffffffffffffffffffffffffffff16141561106e576040517f08c379a00000000000000000000000000000000000000000000000000000000081526004016110659061292e565b60405180910390fd5b611079838383611850565b611084600082610e3a565b6001600360008573ffffffffffffffffffffffffffffffffffffffff1673ffffffffffffffffffffffffffffffffffffffff16815260200190815260200160002060008282546110d49190612be2565b925050819055506001600360008473ffffffffffffffffffffffffffffffffffffffff1673ffffffffffffffffffffffffffffffffffffffff168152602001908152602001600020600082825461112b9190612b5b565b92505081905550816002600083815260200190815260200160002060006101000a81548173ffffffffffffffffffffffffffffffffffffffff021916908373ffffffffffffffffffffffffffffffffffffffff160217905550808273ffffffffffffffffffffffffffffffffffffffff168473ffffffffffffffffffffffffffffffffffffffff167fddf252ad1be2c89b69c2b068fc378daa952ba7f163c4a11628f55a4df523b3ef60405160405180910390a46111ea838383611860565b505050565b6001816000016000828254019250508190555050565b600081600001549050919050565b61122d828260405180602001604052806000815250611865565b5050565b611239610e32565b73ffffffffffffffffffffffffffffffffffffffff16611257610ab9565b73ffffffffffffffffffffffffffffffffffffffff16146112ad576040517f08c379a00000000000000000000000000000000000000000000000000000000081526004016112a4906129ce565b60405180910390fd5b565b6000600a60009054906101000a900473ffffffffffffffffffffffffffffffffffffffff16905081600a60006101000a81548173ffffffffffffffffffffffffffffffffffffffff021916908373ffffffffffffffffffffffffffffffffffffffff1602179055508173ffffffffffffffffffffffffffffffffffffffff168173ffffffffffffffffffffffffffffffffffffffff167f8be0079c531659141344cd1fd0a4f28419497f9722a3daafe3b4186f6b6457e060405160405180910390a35050565b8173ffffffffffffffffffffffffffffffffffffffff168373ffffffffffffffffffffffffffffffffffffffff1614156113e4576040517f08c379a00000000000000000000000000000000000000000000000000000000081526004016113db9061294e565b60405180910390fd5b80600560008573ffffffffffffffffffffffffffffffffffffffff1673ffffffffffffffffffffffffffffffffffffffff16815260200190815260200160002060008473ffffffffffffffffffffffffffffffffffffffff1673ffffffffffffffffffffffffffffffffffffffff16815260200190815260200160002060006101000a81548160ff0219169083151502179055508173ffffffffffffffffffffffffffffffffffffffff168373ffffffffffffffffffffffffffffffffffffffff167f17307eab39ab6107e8899845ad3d59bd9653f200f220920489ca2b5937696c31836040516114d59190612851565b60405180910390a3505050565b6114ed848484610f88565b6114f9848484846118c0565b611538576040517f08c379a000000000000000000000000000000000000000000000000000000000815260040161152f906128ae565b60405180910390fd5b50505050565b606060405180602001604052806000815250905090565b6060600082141561159d576040518060400160405280600181526020017f300000000000000000000000000000000000000000000000000000000000000081525090506116fd565b600082905060005b600082146115cf5780806115b890612d2f565b915050600a826115c89190612bb1565b91506115a5565b60008167ffffffffffffffff811115611611577f4e487b7100000000000000000000000000000000000000000000000000000000600052604160045260246000fd5b6040519080825280601f01601f1916602001820160405280156116435781602001600182028036833780820191505090505b5090505b600085146116f65760018261165c9190612be2565b9150600a8561166b9190612d78565b60306116779190612b5b565b60f81b8183815181106116b3577f4e487b7100000000000000000000000000000000000000000000000000000000600052603260045260246000fd5b60200101907effffffffffffffffffffffffffffffffffffffffffffffffffffffffffffff1916908160001a905350600a856116ef9190612bb1565b9450611647565b8093505050505b919050565b60007f80ac58cd000000000000000000000000000000000000000000000000000000007bffffffffffffffffffffffffffffffffffffffffffffffffffffffff1916827bffffffffffffffffffffffffffffffffffffffffffffffffffffffff191614806117cd57507f5b5e139f000000000000000000000000000000000000000000000000000000007bffffffffffffffffffffffffffffffffffffffffffffffffffffffff1916827bffffffffffffffffffffffffffffffffffffffffffffffffffffffff1916145b806117dd57506117dc82611a57565b5b9050919050565b60008073ffffffffffffffffffffffffffffffffffffffff166002600084815260200190815260200160002060009054906101000a900473ffffffffffffffffffffffffffffffffffffffff1673ffffffffffffffffffffffffffffffffffffffff1614159050919050565b61185b838383611ac1565b505050565b505050565b61186f8383611bd5565b61187c60008484846118c0565b6118bb576040517f08c379a00000000000000000000000000000000000000000000000000000000081526004016118b2906128ae565b60405180910390fd5b505050565b60006118e18473ffffffffffffffffffffffffffffffffffffffff16611daf565b15611a4a578373ffffffffffffffffffffffffffffffffffffffff1663150b7a0261190a610e32565b8786866040518563ffffffff1660e01b815260040161192c94939291906127e3565b602060405180830381600087803b15801561194657600080fd5b505af192505050801561197757506040513d601f19601f8201168201806040525081019061197491906123f0565b60015b6119fa573d80600081146119a7576040519150601f19603f3d011682016040523d82523d6000602084013e6119ac565b606091505b506000815114156119f2576040517f08c379a00000000000000000000000000000000000000000000000000000000081526004016119e9906128ae565b60405180910390fd5b805181602001fd5b63150b7a0260e01b7bffffffffffffffffffffffffffffffffffffffffffffffffffffffff1916817bffffffffffffffffffffffffffffffffffffffffffffffffffffffff191614915050611a4f565b600190505b949350505050565b60007f01ffc9a7000000000000000000000000000000000000000000000000000000007bffffffffffffffffffffffffffffffffffffffffffffffffffffffff1916827bffffffffffffffffffffffffffffffffffffffffffffffffffffffff1916149050919050565b611acc838383611dd2565b600073ffffffffffffffffffffffffffffffffffffffff168373ffffffffffffffffffffffffffffffffffffffff161415611b0f57611b0a81611dd7565b611b4e565b8173ffffffffffffffffffffffffffffffffffffffff168373ffffffffffffffffffffffffffffffffffffffff1614611b4d57611b4c8382611e20565b5b5b600073ffffffffffffffffffffffffffffffffffffffff168273ffffffffffffffffffffffffffffffffffffffff161415611b9157611b8c81611f8d565b611bd0565b8273ffffffffffffffffffffffffffffffffffffffff168273ffffffffffffffffffffffffffffffffffffffff1614611bcf57611bce82826120d0565b5b5b505050565b600073ffffffffffffffffffffffffffffffffffffffff168273ffffffffffffffffffffffffffffffffffffffff161415611c45576040517f08c379a0000000000000000000000000000000000000000000000000000000008152600401611c3c906129ae565b60405180910390fd5b611c4e816117e4565b15611c8e576040517f08c379a0000000000000000000000000000000000000000000000000000000008152600401611c859061290e565b60405180910390fd5b611c9a60008383611850565b6001600360008473ffffffffffffffffffffffffffffffffffffffff1673ffffffffffffffffffffffffffffffffffffffff1681526020019081526020016000206000828254611cea9190612b5b565b92505081905550816002600083815260200190815260200160002060006101000a81548173ffffffffffffffffffffffffffffffffffffffff021916908373ffffffffffffffffffffffffffffffffffffffff160217905550808273ffffffffffffffffffffffffffffffffffffffff16600073ffffffffffffffffffffffffffffffffffffffff167fddf252ad1be2c89b69c2b068fc378daa952ba7f163c4a11628f55a4df523b3ef60405160405180910390a4611dab60008383611860565b5050565b6000808273ffffffffffffffffffffffffffffffffffffffff163b119050919050565b505050565b6008805490506009600083815260200190815260200160002081905550600881908060018154018082558091505060019003906000526020600020016000909190919091505550565b60006001611e2d846108f5565b611e379190612be2565b9050600060076000848152602001908152602001600020549050818114611f1c576000600660008673ffffffffffffffffffffffffffffffffffffffff1673ffffffffffffffffffffffffffffffffffffffff168152602001908152602001600020600084815260200190815260200160002054905080600660008773ffffffffffffffffffffffffffffffffffffffff1673ffffffffffffffffffffffffffffffffffffffff168152602001908152602001600020600084815260200190815260200160002081905550816007600083815260200190815260200160002081905550505b6007600084815260200190815260200160002060009055600660008573ffffffffffffffffffffffffffffffffffffffff1673ffffffffffffffffffffffffffffffffffffffff16815260200190815260200160002060008381526020019081526020016000206000905550505050565b60006001600880549050611fa19190612be2565b9050600060096000848152602001908152602001600020549050600060088381548110611ff7577f4e487b7100000000000000000000000000000000000000000000000000000000600052603260045260246000fd5b90600052602060002001549050806008838154811061203f577f4e487b7100000000000000000000000000000000000000000000000000000000600052603260045260246000fd5b9060005260206000200181905550816009600083815260200190815260200160002081905550600960008581526020019081526020016000206000905560088054806120b4577f4e487b7100000000000000000000000000000000000000000000000000000000600052603160045260246000fd5b6001900381819060005260206000200160009055905550505050565b60006120db836108f5565b905081600660008573ffffffffffffffffffffffffffffffffffffffff1673ffffffffffffffffffffffffffffffffffffffff168152602001908152602001600020600083815260200190815260200160002081905550806007600084815260200190815260200160002081905550505050565b600061216261215d84612aae565b612a89565b90508281526020810184848401111561217a57600080fd5b612185848285612c8a565b509392505050565b60008135905061219c81613259565b92915050565b6000813590506121b181613270565b92915050565b6000813590506121c681613287565b92915050565b6000815190506121db81613287565b92915050565b600082601f8301126121f257600080fd5b813561220284826020860161214f565b91505092915050565b60008135905061221a8161329e565b92915050565b60006020828403121561223257600080fd5b60006122408482850161218d565b91505092915050565b6000806040838503121561225c57600080fd5b600061226a8582860161218d565b925050602061227b8582860161218d565b9150509250929050565b60008060006060848603121561229a57600080fd5b60006122a88682870161218d565b93505060206122b98682870161218d565b92505060406122ca8682870161220b565b9150509250925092565b600080600080608085870312156122ea57600080fd5b60006122f88782880161218d565b94505060206123098782880161218d565b935050604061231a8782880161220b565b925050606085013567ffffffffffffffff81111561233757600080fd5b612343878288016121e1565b91505092959194509250565b6000806040838503121561236257600080fd5b60006123708582860161218d565b9250506020612381858286016121a2565b9150509250929050565b6000806040838503121561239e57600080fd5b60006123ac8582860161218d565b92505060206123bd8582860161220b565b9150509250929050565b6000602082840312156123d957600080fd5b60006123e7848285016121b7565b91505092915050565b60006020828403121561240257600080fd5b6000612410848285016121cc565b91505092915050565b60006020828403121561242b57600080fd5b60006124398482850161220b565b91505092915050565b600061244e8383612786565b60208301905092915050565b61246381612c16565b82525050565b600061247482612aef565b61247e8185612b1d565b935061248983612adf565b8060005b838110156124ba5781516124a18882612442565b97506124ac83612b10565b92505060018101905061248d565b5085935050505092915050565b6124d081612c28565b82525050565b60006124e182612afa565b6124eb8185612b2e565b93506124fb818560208601612c99565b61250481612e65565b840191505092915050565b600061251a82612b05565b6125248185612b3f565b9350612534818560208601612c99565b61253d81612e65565b840191505092915050565b600061255382612b05565b61255d8185612b50565b935061256d818560208601612c99565b80840191505092915050565b6000612586602b83612b3f565b915061259182612e76565b604082019050919050565b60006125a9603283612b3f565b91506125b482612ec5565b604082019050919050565b60006125cc602683612b3f565b91506125d782612f14565b604082019050919050565b60006125ef602583612b3f565b91506125fa82612f63565b604082019050919050565b6000612612601c83612b3f565b915061261d82612fb2565b602082019050919050565b6000612635602483612b3f565b915061264082612fdb565b604082019050919050565b6000612658601983612b3f565b91506126638261302a565b602082019050919050565b600061267b602983612b3f565b915061268682613053565b604082019050919050565b600061269e603e83612b3f565b91506126a9826130a2565b604082019050919050565b60006126c1602083612b3f565b91506126cc826130f1565b602082019050919050565b60006126e4602083612b3f565b91506126ef8261311a565b602082019050919050565b6000612707601883612b3f565b915061271282613143565b602082019050919050565b600061272a602183612b3f565b91506127358261316c565b604082019050919050565b600061274d602c83612b3f565b9150612758826131bb565b604082019050919050565b6000612770602e83612b3f565b915061277b8261320a565b604082019050919050565b61278f81612c80565b82525050565b61279e81612c80565b82525050565b60006127b08285612548565b91506127bc8284612548565b91508190509392505050565b60006020820190506127dd600083018461245a565b92915050565b60006080820190506127f8600083018761245a565b612805602083018661245a565b6128126040830185612795565b818103606083015261282481846124d6565b905095945050505050565b600060208201905081810360008301526128498184612469565b905092915050565b600060208201905061286660008301846124c7565b92915050565b60006020820190508181036000830152612886818461250f565b905092915050565b600060208201905081810360008301526128a781612579565b9050919050565b600060208201905081810360008301526128c78161259c565b9050919050565b600060208201905081810360008301526128e7816125bf565b9050919050565b60006020820190508181036000830152612907816125e2565b9050919050565b6000602082019050818103600083015261292781612605565b9050919050565b6000602082019050818103600083015261294781612628565b9050919050565b600060208201905081810360008301526129678161264b565b9050919050565b600060208201905081810360008301526129878161266e565b9050919050565b600060208201905081810360008301526129a781612691565b9050919050565b600060208201905081810360008301526129c7816126b4565b9050919050565b600060208201905081810360008301526129e7816126d7565b9050919050565b60006020820190508181036000830152612a07816126fa565b9050919050565b60006020820190508181036000830152612a278161271d565b9050919050565b60006020820190508181036000830152612a4781612740565b9050919050565b60006020820190508181036000830152612a6781612763565b9050919050565b6000602082019050612a836000830184612795565b92915050565b6000612a93612aa4565b9050612a9f8282612cfe565b919050565b6000604051905090565b600067ffffffffffffffff821115612ac957612ac8612e36565b5b612ad282612e65565b9050602081019050919050565b6000819050602082019050919050565b600081519050919050565b600081519050919050565b600081519050919050565b6000602082019050919050565b600082825260208201905092915050565b600082825260208201905092915050565b600082825260208201905092915050565b600081905092915050565b6000612b6682612c80565b9150612b7183612c80565b9250827fffffffffffffffffffffffffffffffffffffffffffffffffffffffffffffffff03821115612ba657612ba5612da9565b5b828201905092915050565b6000612bbc82612c80565b9150612bc783612c80565b925082612bd757612bd6612dd8565b5b828204905092915050565b6000612bed82612c80565b9150612bf883612c80565b925082821015612c0b57612c0a612da9565b5b828203905092915050565b6000612c2182612c60565b9050919050565b60008115159050919050565b60007fffffffff0000000000000000000000000000000000000000000000000000000082169050919050565b600073ffffffffffffffffffffffffffffffffffffffff82169050919050565b6000819050919050565b82818337600083830152505050565b60005b83811015612cb7578082015181840152602081019050612c9c565b83811115612cc6576000848401525b50505050565b60006002820490506001821680612ce457607f821691505b60208210811415612cf857612cf7612e07565b5b50919050565b612d0782612e65565b810181811067ffffffffffffffff82111715612d2657612d25612e36565b5b80604052505050565b6000612d3a82612c80565b91507fffffffffffffffffffffffffffffffffffffffffffffffffffffffffffffffff821415612d6d57612d6c612da9565b5b600182019050919050565b6000612d8382612c80565b9150612d8e83612c80565b925082612d9e57612d9d612dd8565b5b828206905092915050565b7f4e487b7100000000000000000000000000000000000000000000000000000000600052601160045260246000fd5b7f4e487b7100000000000000000000000000000000000000000000000000000000600052601260045260246000fd5b7f4e487b7100000000000000000000000000000000000000000000000000000000600052602260045260246000fd5b7f4e487b7100000000000000000000000000000000000000000000000000000000600052604160045260246000fd5b6000601f19601f8301169050919050565b7f455243373231456e756d657261626c653a206f776e657220696e646578206f7560008201527f74206f6620626f756e6473000000000000000000000000000000000000000000602082015250565b7f4552433732313a207472616e7366657220746f206e6f6e20455243373231526560008201527f63656976657220696d706c656d656e7465720000000000000000000000000000602082015250565b7f4f776e61626c653a206e6577206f776e657220697320746865207a65726f206160008201527f6464726573730000000000000000000000000000000000000000000000000000602082015250565b7f4552433732313a207472616e736665722066726f6d20696e636f72726563742060008201527f6f776e6572000000000000000000000000000000000000000000000000000000602082015250565b7f4552433732313a20746f6b656e20616c7265616479206d696e74656400000000600082015250565b7f4552433732313a207472616e7366657220746f20746865207a65726f2061646460008201527f7265737300000000000000000000000000000000000000000000000000000000602082015250565b7f4552433732313a20617070726f766520746f2063616c6c657200000000000000600082015250565b7f4552433732313a2061646472657373207a65726f206973206e6f74206120766160008201527f6c6964206f776e65720000000000000000000000000000000000000000000000602082015250565b7f4552433732313a20617070726f76652063616c6c6572206973206e6f7420746f60008201527f6b656e206f776e6572206e6f7220617070726f76656420666f7220616c6c0000602082015250565b7f4552433732313a206d696e7420746f20746865207a65726f2061646472657373600082015250565b7f4f776e61626c653a2063616c6c6572206973206e6f7420746865206f776e6572600082015250565b7f4552433732313a20696e76616c696420746f6b656e2049440000000000000000600082015250565b7f4552433732313a20617070726f76616c20746f2063757272656e74206f776e6560008201527f7200000000000000000000000000000000000000000000000000000000000000602082015250565b7f455243373231456e756d657261626c653a20676c6f62616c20696e646578206f60008201527f7574206f6620626f756e64730000000000000000000000000000000000000000602082015250565b7f4552433732313a2063616c6c6572206973206e6f7420746f6b656e206f776e6560008201527f72206e6f7220617070726f766564000000000000000000000000000000000000602082015250565b61326281612c16565b811461326d57600080fd5b50565b61327981612c28565b811461328457600080fd5b50565b61329081612c34565b811461329b57600080fd5b50565b6132a781612c80565b81146132b257600080fd5b5056fea26469706673582212202b9b92608cfe011186ec2925f2cbae70a1000a52a03e812a351a6fd81dd0006964736f6c63430008040033",
    "linkReferences": {},
    "deployedLinkReferences": {}
}