{
  "_format": "hh-sol-artifact-1",
  "contractName": "ERC721Staking",
  "sourceName": "contracts/ERC721Staking.sol",
  "abi": [
    {
      "inputs": [
        {
          "internalType": "contract IERC721",
          "name": "_nftCollection",
          "type": "address"
        },
        {
          "internalType": "contract IERC20",
          "name": "_rewardsToken",
          "type": "address"
        }
      ],
      "stateMutability": "nonpayable",
      "type": "constructor"
    },
    {
      "anonymous": false,
      "inputs": [
        {
          "indexed": true,
          "internalType": "address",
          "name": "previousOwner",
          "type": "address"
        },
        {
          "indexed": true,
          "internalType": "address",
          "name": "newOwner",
          "type": "address"
        }
      ],
      "name": "OwnershipTransferred",
      "type": "event"
    },
    {
      "inputs": [],
      "name": "claimRewards",
      "outputs": [],
      "stateMutability": "nonpayable",
      "type": "function"
    },
    {
      "inputs": [],
      "name": "nftCollection",
      "outputs": [
        {
          "internalType": "contract IERC721",
          "name": "",
          "type": "address"
        }
      ],
      "stateMutability": "view",
      "type": "function"
    },
    {
      "inputs": [],
      "name": "owner",
      "outputs": [
        {
          "internalType": "address",
          "name": "",
          "type": "address"
        }
      ],
      "stateMutability": "view",
      "type": "function"
    },
    {
      "inputs": [],
      "name": "renounceOwnership",
      "outputs": [],
      "stateMutability": "nonpayable",
      "type": "function"
    },
    {
      "inputs": [],
      "name": "rewardsToken",
      "outputs": [
        {
          "internalType": "contract IERC20",
          "name": "",
          "type": "address"
        }
      ],
      "stateMutability": "view",
      "type": "function"
    },
    {
      "inputs": [
        {
          "internalType": "uint256",
          "name": "_newValue",
          "type": "uint256"
        }
      ],
      "name": "setRewardsPerHour",
      "outputs": [],
      "stateMutability": "nonpayable",
      "type": "function"
    },
    {
      "inputs": [
        {
          "internalType": "uint256[]",
          "name": "_tokenIds",
          "type": "uint256[]"
        }
      ],
      "name": "stake",
      "outputs": [],
      "stateMutability": "nonpayable",
      "type": "function"
    },
    {
      "inputs": [
        {
          "internalType": "uint256",
          "name": "",
          "type": "uint256"
        }
      ],
      "name": "stakerAddress",
      "outputs": [
        {
          "internalType": "address",
          "name": "",
          "type": "address"
        }
      ],
      "stateMutability": "view",
      "type": "function"
    },
    {
      "inputs": [
        {
          "internalType": "address",
          "name": "",
          "type": "address"
        }
      ],
      "name": "stakers",
      "outputs": [
        {
          "internalType": "uint256",
          "name": "amountStaked",
          "type": "uint256"
        },
        {
          "internalType": "uint256",
          "name": "timeOfLastUpdate",
          "type": "uint256"
        },
        {
          "internalType": "uint256",
          "name": "unclaimedRewards",
          "type": "uint256"
        }
      ],
      "stateMutability": "view",
      "type": "function"
    },
    {
      "inputs": [
        {
          "internalType": "uint256",
          "name": "",
          "type": "uint256"
        }
      ],
      "name": "stakersArray",
      "outputs": [
        {
          "internalType": "address",
          "name": "",
          "type": "address"
        }
      ],
      "stateMutability": "view",
      "type": "function"
    },
    {
      "inputs": [
        {
          "internalType": "address",
          "name": "newOwner",
          "type": "address"
        }
      ],
      "name": "transferOwnership",
      "outputs": [],
      "stateMutability": "nonpayable",
      "type": "function"
    },
    {
      "inputs": [
        {
          "internalType": "address",
          "name": "_user",
          "type": "address"
        }
      ],
      "name": "userStakeInfo",
      "outputs": [
        {
          "internalType": "uint256",
          "name": "_tokensStaked",
          "type": "uint256"
        },
        {
          "internalType": "uint256",
          "name": "_availableRewards",
          "type": "uint256"
        }
      ],
      "stateMutability": "view",
      "type": "function"
    },
    {
      "inputs": [
        {
          "internalType": "uint256[]",
          "name": "_tokenIds",
          "type": "uint256[]"
        }
      ],
      "name": "withdraw",
      "outputs": [],
      "stateMutability": "nonpayable",
      "type": "function"
    }
  ],
  "bytecode": "0x60c0604052620186a06002553480156200001857600080fd5b50604051620027213803806200272183398181016040528101906200003e9190620001d5565b6200005e62000052620000db60201b60201c565b620000e360201b60201c565b600180819055508173ffffffffffffffffffffffffffffffffffffffff1660a08173ffffffffffffffffffffffffffffffffffffffff1660601b815250508073ffffffffffffffffffffffffffffffffffffffff1660808173ffffffffffffffffffffffffffffffffffffffff1660601b815250505050620002a6565b600033905090565b60008060009054906101000a900473ffffffffffffffffffffffffffffffffffffffff169050816000806101000a81548173ffffffffffffffffffffffffffffffffffffffff021916908373ffffffffffffffffffffffffffffffffffffffff1602179055508173ffffffffffffffffffffffffffffffffffffffff168173ffffffffffffffffffffffffffffffffffffffff167f8be0079c531659141344cd1fd0a4f28419497f9722a3daafe3b4186f6b6457e060405160405180910390a35050565b600081519050620001b88162000272565b92915050565b600081519050620001cf816200028c565b92915050565b60008060408385031215620001e957600080fd5b6000620001f985828601620001be565b92505060206200020c85828601620001a7565b9150509250929050565b6000620002238262000252565b9050919050565b6000620002378262000216565b9050919050565b60006200024b8262000216565b9050919050565b600073ffffffffffffffffffffffffffffffffffffffff82169050919050565b6200027d816200022a565b81146200028957600080fd5b50565b62000297816200023e565b8114620002a357600080fd5b50565b60805160601c60a05160601c612433620002ee6000396000818161040a01528181610548015281816109760152610cbc015260008181610896015261126501526124336000f3fe608060405234801561001057600080fd5b50600436106100cf5760003560e01c80638da5cb5b1161008c578063983d95ce11610066578063983d95ce14610203578063b5a5e5091461021f578063d1af0c7d1461023b578063f2fde38b14610259576100cf565b80638da5cb5b146101835780639168ae72146101a157806394067045146101d3576100cf565b80630fbf0a93146100d4578063372500ab146100f05780634ead4327146100fa5780635357e9161461012b5780636588103b1461015b578063715018a614610179575b600080fd5b6100ee60048036038101906100e991906119f0565b610275565b005b6100f8610763565b005b610114600480360381019061010f919061199e565b6108dd565b604051610122929190611e8d565b60405180910390f35b61014560048036038101906101409190611a5e565b610935565b6040516101529190611c7f565b60405180910390f35b610163610974565b6040516101709190611d15565b60405180910390f35b610181610998565b005b61018b6109ac565b6040516101989190611c7f565b60405180910390f35b6101bb60048036038101906101b6919061199e565b6109d5565b6040516101ca93929190611eb6565b60405180910390f35b6101ed60048036038101906101e89190611a5e565b6109ff565b6040516101fa9190611c7f565b60405180910390f35b61021d600480360381019061021891906119f0565b610a32565b005b61023960048036038101906102349190611a5e565b6110b3565b005b610243611263565b6040516102509190611cfa565b60405180910390f35b610273600480360381019061026e919061199e565b611287565b005b600260015414156102bb576040517f08c379a00000000000000000000000000000000000000000000000000000000081526004016102b290611e52565b60405180910390fd5b60026001819055506000600360003373ffffffffffffffffffffffffffffffffffffffff1673ffffffffffffffffffffffffffffffffffffffff16815260200190815260200160002060000154111561037a5760006103193361130b565b905080600360003373ffffffffffffffffffffffffffffffffffffffff1673ffffffffffffffffffffffffffffffffffffffff168152602001908152602001600020600201600082825461036d9190611f1f565b92505081905550506103de565b6005339080600181540180825580915050600190039060005260206000200160009091909190916101000a81548173ffffffffffffffffffffffffffffffffffffffff021916908373ffffffffffffffffffffffffffffffffffffffff1602179055505b600082829050905060005b818110156106b6573373ffffffffffffffffffffffffffffffffffffffff167f000000000000000000000000000000000000000000000000000000000000000073ffffffffffffffffffffffffffffffffffffffff16636352211e86868581811061047d577f4e487b7100000000000000000000000000000000000000000000000000000000600052603260045260246000fd5b905060200201356040518263ffffffff1660e01b81526004016104a09190611e72565b60206040518083038186803b1580156104b857600080fd5b505afa1580156104cc573d6000803e3d6000fd5b505050506040513d601f19601f820116820180604052508101906104f091906119c7565b73ffffffffffffffffffffffffffffffffffffffff1614610546576040517f08c379a000000000000000000000000000000000000000000000000000000000815260040161053d90611db2565b60405180910390fd5b7f000000000000000000000000000000000000000000000000000000000000000073ffffffffffffffffffffffffffffffffffffffff166323b872dd33308787868181106105bd577f4e487b7100000000000000000000000000000000000000000000000000000000600052603260045260246000fd5b905060200201356040518463ffffffff1660e01b81526004016105e293929190611c9a565b600060405180830381600087803b1580156105fc57600080fd5b505af1158015610610573d6000803e3d6000fd5b505050503360046000868685818110610652577f4e487b7100000000000000000000000000000000000000000000000000000000600052603260045260246000fd5b90506020020135815260200190815260200160002060006101000a81548173ffffffffffffffffffffffffffffffffffffffff021916908373ffffffffffffffffffffffffffffffffffffffff160217905550806106af906120f7565b90506103e9565b5080600360003373ffffffffffffffffffffffffffffffffffffffff1673ffffffffffffffffffffffffffffffffffffffff16815260200190815260200160002060000160008282546107099190611f1f565b9250508190555042600360003373ffffffffffffffffffffffffffffffffffffffff1673ffffffffffffffffffffffffffffffffffffffff1681526020019081526020016000206001018190555050600180819055505050565b6000600360003373ffffffffffffffffffffffffffffffffffffffff1673ffffffffffffffffffffffffffffffffffffffff168152602001908152602001600020600201546107b13361130b565b6107bb9190611f1f565b905060008111610800576040517f08c379a00000000000000000000000000000000000000000000000000000000081526004016107f790611df2565b60405180910390fd5b42600360003373ffffffffffffffffffffffffffffffffffffffff1673ffffffffffffffffffffffffffffffffffffffff168152602001908152602001600020600101819055506000600360003373ffffffffffffffffffffffffffffffffffffffff1673ffffffffffffffffffffffffffffffffffffffff168152602001908152602001600020600201819055506108da33827f000000000000000000000000000000000000000000000000000000000000000073ffffffffffffffffffffffffffffffffffffffff166113b99092919063ffffffff16565b50565b600080600360008473ffffffffffffffffffffffffffffffffffffffff1673ffffffffffffffffffffffffffffffffffffffff1681526020019081526020016000206000015461092c8461143f565b91509150915091565b6005818154811061094557600080fd5b906000526020600020016000915054906101000a900473ffffffffffffffffffffffffffffffffffffffff1681565b7f000000000000000000000000000000000000000000000000000000000000000081565b6109a0611539565b6109aa60006115b7565b565b60008060009054906101000a900473ffffffffffffffffffffffffffffffffffffffff16905090565b60036020528060005260406000206000915090508060000154908060010154908060020154905083565b60046020528060005260406000206000915054906101000a900473ffffffffffffffffffffffffffffffffffffffff1681565b60026001541415610a78576040517f08c379a0000000000000000000000000000000000000000000000000000000008152600401610a6f90611e52565b60405180910390fd5b60026001819055506000600360003373ffffffffffffffffffffffffffffffffffffffff1673ffffffffffffffffffffffffffffffffffffffff1681526020019081526020016000206000015411610b05576040517f08c379a0000000000000000000000000000000000000000000000000000000008152600401610afc90611d72565b60405180910390fd5b6000610b103361130b565b905080600360003373ffffffffffffffffffffffffffffffffffffffff1673ffffffffffffffffffffffffffffffffffffffff1681526020019081526020016000206002016000828254610b649190611f1f565b92505081905550600083839050905060005b81811015610d99573373ffffffffffffffffffffffffffffffffffffffff1660046000878785818110610bd2577f4e487b7100000000000000000000000000000000000000000000000000000000600052603260045260246000fd5b90506020020135815260200190815260200160002060009054906101000a900473ffffffffffffffffffffffffffffffffffffffff1673ffffffffffffffffffffffffffffffffffffffff1614610c2857600080fd5b600060046000878785818110610c67577f4e487b7100000000000000000000000000000000000000000000000000000000600052603260045260246000fd5b90506020020135815260200190815260200160002060006101000a81548173ffffffffffffffffffffffffffffffffffffffff021916908373ffffffffffffffffffffffffffffffffffffffff1602179055507f000000000000000000000000000000000000000000000000000000000000000073ffffffffffffffffffffffffffffffffffffffff166323b872dd3033888886818110610d31577f4e487b7100000000000000000000000000000000000000000000000000000000600052603260045260246000fd5b905060200201356040518463ffffffff1660e01b8152600401610d5693929190611c9a565b600060405180830381600087803b158015610d7057600080fd5b505af1158015610d84573d6000803e3d6000fd5b5050505080610d92906120f7565b9050610b76565b5080600360003373ffffffffffffffffffffffffffffffffffffffff1673ffffffffffffffffffffffffffffffffffffffff1681526020019081526020016000206000016000828254610dec9190612000565b9250508190555042600360003373ffffffffffffffffffffffffffffffffffffffff1673ffffffffffffffffffffffffffffffffffffffff168152602001908152602001600020600101819055506000600360003373ffffffffffffffffffffffffffffffffffffffff1673ffffffffffffffffffffffffffffffffffffffff1681526020019081526020016000206000015414156110a65760005b6005805490508110156110a4573373ffffffffffffffffffffffffffffffffffffffff1660058281548110610ee6577f4e487b7100000000000000000000000000000000000000000000000000000000600052603260045260246000fd5b9060005260206000200160009054906101000a900473ffffffffffffffffffffffffffffffffffffffff1673ffffffffffffffffffffffffffffffffffffffff1614156110935760056001600580549050610f419190612000565b81548110610f78577f4e487b7100000000000000000000000000000000000000000000000000000000600052603260045260246000fd5b9060005260206000200160009054906101000a900473ffffffffffffffffffffffffffffffffffffffff1660058281548110610fdd577f4e487b7100000000000000000000000000000000000000000000000000000000600052603260045260246000fd5b9060005260206000200160006101000a81548173ffffffffffffffffffffffffffffffffffffffff021916908373ffffffffffffffffffffffffffffffffffffffff160217905550600580548061105d577f4e487b7100000000000000000000000000000000000000000000000000000000600052603160045260246000fd5b6001900381819060005260206000200160006101000a81549073ffffffffffffffffffffffffffffffffffffffff021916905590555b8061109d906120f7565b9050610e88565b505b5050600180819055505050565b6110bb611539565b6000600580548060200260200160405190810160405280929190818152602001828054801561113f57602002820191906000526020600020905b8160009054906101000a900473ffffffffffffffffffffffffffffffffffffffff1673ffffffffffffffffffffffffffffffffffffffff16815260200190600101908083116110f5575b5050505050905060008151905060005b81811015611256576000838281518110611192577f4e487b7100000000000000000000000000000000000000000000000000000000600052603260045260246000fd5b602002602001015190506111a58161130b565b600360008373ffffffffffffffffffffffffffffffffffffffff1673ffffffffffffffffffffffffffffffffffffffff16815260200190815260200160002060020160008282546111f69190611f1f565b9250508190555042600360003373ffffffffffffffffffffffffffffffffffffffff1673ffffffffffffffffffffffffffffffffffffffff16815260200190815260200160002060010181905550508061124f906120f7565b905061114f565b5082600281905550505050565b7f000000000000000000000000000000000000000000000000000000000000000081565b61128f611539565b600073ffffffffffffffffffffffffffffffffffffffff168173ffffffffffffffffffffffffffffffffffffffff1614156112ff576040517f08c379a00000000000000000000000000000000000000000000000000000000081526004016112f690611d52565b60405180910390fd5b611308816115b7565b50565b600080600360008473ffffffffffffffffffffffffffffffffffffffff1673ffffffffffffffffffffffffffffffffffffffff16815260200190815260200160002060405180606001604052908160008201548152602001600182015481526020016002820154815250509050610e1060025482600001518360200151426113939190612000565b61139d9190611fa6565b6113a79190611fa6565b6113b19190611f75565b915050919050565b61143a8363a9059cbb60e01b84846040516024016113d8929190611cd1565b604051602081830303815290604052907bffffffffffffffffffffffffffffffffffffffffffffffffffffffff19166020820180517bffffffffffffffffffffffffffffffffffffffffffffffffffffffff838183161783525050505061167b565b505050565b600080600360008473ffffffffffffffffffffffffffffffffffffffff1673ffffffffffffffffffffffffffffffffffffffff1681526020019081526020016000206000015414156114d557600360008373ffffffffffffffffffffffffffffffffffffffff1673ffffffffffffffffffffffffffffffffffffffff168152602001908152602001600020600201549050611534565b60006114e08361130b565b600360008573ffffffffffffffffffffffffffffffffffffffff1673ffffffffffffffffffffffffffffffffffffffff1681526020019081526020016000206002015461152d9190611f1f565b9050809150505b919050565b611541611742565b73ffffffffffffffffffffffffffffffffffffffff1661155f6109ac565b73ffffffffffffffffffffffffffffffffffffffff16146115b5576040517f08c379a00000000000000000000000000000000000000000000000000000000081526004016115ac90611dd2565b60405180910390fd5b565b60008060009054906101000a900473ffffffffffffffffffffffffffffffffffffffff169050816000806101000a81548173ffffffffffffffffffffffffffffffffffffffff021916908373ffffffffffffffffffffffffffffffffffffffff1602179055508173ffffffffffffffffffffffffffffffffffffffff168173ffffffffffffffffffffffffffffffffffffffff167f8be0079c531659141344cd1fd0a4f28419497f9722a3daafe3b4186f6b6457e060405160405180910390a35050565b60006116dd826040518060400160405280602081526020017f5361666545524332303a206c6f772d6c6576656c2063616c6c206661696c65648152508573ffffffffffffffffffffffffffffffffffffffff1661174a9092919063ffffffff16565b905060008151111561173d57808060200190518101906116fd9190611a35565b61173c576040517f08c379a000000000000000000000000000000000000000000000000000000000815260040161173390611e32565b60405180910390fd5b5b505050565b600033905090565b60606117598484600085611762565b90509392505050565b6060824710156117a7576040517f08c379a000000000000000000000000000000000000000000000000000000000815260040161179e90611d92565b60405180910390fd5b6117b085611876565b6117ef576040517f08c379a00000000000000000000000000000000000000000000000000000000081526004016117e690611e12565b60405180910390fd5b6000808673ffffffffffffffffffffffffffffffffffffffff1685876040516118189190611c68565b60006040518083038185875af1925050503d8060008114611855576040519150601f19603f3d011682016040523d82523d6000602084013e61185a565b606091505b509150915061186a828286611899565b92505050949350505050565b6000808273ffffffffffffffffffffffffffffffffffffffff163b119050919050565b606083156118a9578290506118f9565b6000835111156118bc5782518084602001fd5b816040517f08c379a00000000000000000000000000000000000000000000000000000000081526004016118f09190611d30565b60405180910390fd5b9392505050565b60008135905061190f816123b8565b92915050565b600081519050611924816123b8565b92915050565b60008083601f84011261193c57600080fd5b8235905067ffffffffffffffff81111561195557600080fd5b60208301915083602082028301111561196d57600080fd5b9250929050565b600081519050611983816123cf565b92915050565b600081359050611998816123e6565b92915050565b6000602082840312156119b057600080fd5b60006119be84828501611900565b91505092915050565b6000602082840312156119d957600080fd5b60006119e784828501611915565b91505092915050565b60008060208385031215611a0357600080fd5b600083013567ffffffffffffffff811115611a1d57600080fd5b611a298582860161192a565b92509250509250929050565b600060208284031215611a4757600080fd5b6000611a5584828501611974565b91505092915050565b600060208284031215611a7057600080fd5b6000611a7e84828501611989565b91505092915050565b611a9081612034565b82525050565b6000611aa182611eed565b611aab8185611f03565b9350611abb8185602086016120c4565b80840191505092915050565b611ad08161207c565b82525050565b611adf816120a0565b82525050565b6000611af082611ef8565b611afa8185611f0e565b9350611b0a8185602086016120c4565b611b138161219e565b840191505092915050565b6000611b2b602683611f0e565b9150611b36826121af565b604082019050919050565b6000611b4e601983611f0e565b9150611b59826121fe565b602082019050919050565b6000611b71602683611f0e565b9150611b7c82612227565b604082019050919050565b6000611b94602183611f0e565b9150611b9f82612276565b604082019050919050565b6000611bb7602083611f0e565b9150611bc2826122c5565b602082019050919050565b6000611bda601c83611f0e565b9150611be5826122ee565b602082019050919050565b6000611bfd601d83611f0e565b9150611c0882612317565b602082019050919050565b6000611c20602a83611f0e565b9150611c2b82612340565b604082019050919050565b6000611c43601f83611f0e565b9150611c4e8261238f565b602082019050919050565b611c6281612072565b82525050565b6000611c748284611a96565b915081905092915050565b6000602082019050611c946000830184611a87565b92915050565b6000606082019050611caf6000830186611a87565b611cbc6020830185611a87565b611cc96040830184611c59565b949350505050565b6000604082019050611ce66000830185611a87565b611cf36020830184611c59565b9392505050565b6000602082019050611d0f6000830184611ac7565b92915050565b6000602082019050611d2a6000830184611ad6565b92915050565b60006020820190508181036000830152611d4a8184611ae5565b905092915050565b60006020820190508181036000830152611d6b81611b1e565b9050919050565b60006020820190508181036000830152611d8b81611b41565b9050919050565b60006020820190508181036000830152611dab81611b64565b9050919050565b60006020820190508181036000830152611dcb81611b87565b9050919050565b60006020820190508181036000830152611deb81611baa565b9050919050565b60006020820190508181036000830152611e0b81611bcd565b9050919050565b60006020820190508181036000830152611e2b81611bf0565b9050919050565b60006020820190508181036000830152611e4b81611c13565b9050919050565b60006020820190508181036000830152611e6b81611c36565b9050919050565b6000602082019050611e876000830184611c59565b92915050565b6000604082019050611ea26000830185611c59565b611eaf6020830184611c59565b9392505050565b6000606082019050611ecb6000830186611c59565b611ed86020830185611c59565b611ee56040830184611c59565b949350505050565b600081519050919050565b600081519050919050565b600081905092915050565b600082825260208201905092915050565b6000611f2a82612072565b9150611f3583612072565b9250827fffffffffffffffffffffffffffffffffffffffffffffffffffffffffffffffff03821115611f6a57611f69612140565b5b828201905092915050565b6000611f8082612072565b9150611f8b83612072565b925082611f9b57611f9a61216f565b5b828204905092915050565b6000611fb182612072565b9150611fbc83612072565b9250817fffffffffffffffffffffffffffffffffffffffffffffffffffffffffffffffff0483118215151615611ff557611ff4612140565b5b828202905092915050565b600061200b82612072565b915061201683612072565b92508282101561202957612028612140565b5b828203905092915050565b600061203f82612052565b9050919050565b60008115159050919050565b600073ffffffffffffffffffffffffffffffffffffffff82169050919050565b6000819050919050565b60006120878261208e565b9050919050565b600061209982612052565b9050919050565b60006120ab826120b2565b9050919050565b60006120bd82612052565b9050919050565b60005b838110156120e25780820151818401526020810190506120c7565b838111156120f1576000848401525b50505050565b600061210282612072565b91507fffffffffffffffffffffffffffffffffffffffffffffffffffffffffffffffff82141561213557612134612140565b5b600182019050919050565b7f4e487b7100000000000000000000000000000000000000000000000000000000600052601160045260246000fd5b7f4e487b7100000000000000000000000000000000000000000000000000000000600052601260045260246000fd5b6000601f19601f8301169050919050565b7f4f776e61626c653a206e6577206f776e657220697320746865207a65726f206160008201527f6464726573730000000000000000000000000000000000000000000000000000602082015250565b7f596f752068617665206e6f20746f6b656e73207374616b656400000000000000600082015250565b7f416464726573733a20696e73756666696369656e742062616c616e636520666f60008201527f722063616c6c0000000000000000000000000000000000000000000000000000602082015250565b7f43616e2774207374616b6520746f6b656e7320796f7520646f6e2774206f776e60008201527f2100000000000000000000000000000000000000000000000000000000000000602082015250565b7f4f776e61626c653a2063616c6c6572206973206e6f7420746865206f776e6572600082015250565b7f596f752068617665206e6f207265776172647320746f20636c61696d00000000600082015250565b7f416464726573733a2063616c6c20746f206e6f6e2d636f6e7472616374000000600082015250565b7f5361666545524332303a204552433230206f7065726174696f6e20646964206e60008201527f6f74207375636365656400000000000000000000000000000000000000000000602082015250565b7f5265656e7472616e637947756172643a207265656e7472616e742063616c6c00600082015250565b6123c181612034565b81146123cc57600080fd5b50565b6123d881612046565b81146123e357600080fd5b50565b6123ef81612072565b81146123fa57600080fd5b5056fea2646970667358221220f76e1e8039efbe0eb70c9dc939c64e0d86728306f447ab1f38b4b2b8a57cae9764736f6c63430008040033",
  "linkReferences": {},
  "deployedLinkReferences": {}
}